:020000040800F2
:100000000001002009000008AFF300804FF0080055
:1000100048498A6942EA00028A61474847490860BC
:1000200040F21110486000F067F84FF0010000F056
:1000300033F800F05CF84FF0410000F040F800F0B9
:1000400056F84FF0010000F027F800F050F84FF09C
:10005000410000F034F800F04AF8F2E7F146374D7D
:10006000EC6824F0F00444EA03064FEA061606F0B2
:10007000F006D5F80CC00CF4007C46EA0C06EE60E5
:10008000EC6844F48076EE6000F031F824F4807679
:10009000EE6000F02CF8484777462849CA6822F4F9
:1000A0000072CA6003464FEA1313FFF7D7FF0346F7
:1000B00003F00F03FFF7D2FF00F019F83847774637
:1000C0001E49CA6842F40072CA6003464FEA13131D
:1000D000FFF7C4FF1949CA6842F40072CA600346B8
:1000E00003F00F03FFF7BAFF00F001F8384742F2C0
:1000F0001071491EFDD17047F3464FF00200FFF723
:10010000CBFFFFF7F4FF4FF02800FFF7C5FFFFF725
:10011000EEFF4FF00E00FFF7BFFF4FF00600FFF7B6
:10012000BBFFFFF7E4FF4FF00100FFF7B5FFFFF75C
:10013000DEFF58470010024000001111000C014082
:0400000508000009E6
:00000001FF
