:020000040800F2
:1000000000010020C501000877463448816941F0AD
:10001000040141F4007181613148416821F0F0012F
:1000200041603048816841F001018160016941F01F
:100030003801016138472B48816841F00101816036
:10004000016811F0020FFBD0C06C7047F246804689
:1000500040F27144A8EB04084FF4206208FB02F858
:100060004FF47A71B8FBF1F84FF47A71B8FBF1F004
:1000700000F1300000F06EF8A0F130004FF47A711A
:1000800001FB00F4A8EB04084FF06401B8FBF1F0A9
:1000900000F1300000F05EF8A0F130004FF0640194
:1000A00001FB00F4A8EB04084FF00A01B8FBF1F0E3
:1000B00000F1300000F04EF8A0F130004FF00A01DE
:1000C00001FB00F4A8EB04084FF00101B8FBF1F0CC
:1000D00000F1300000F03EF85047000000100240F0
:1000E000000801400024014042F21071491EFDD178
:1000F000704777463249CA6822F40072CA600346E4
:100100004FEA131300F008F8034603F00F0300F062
:1001100003F8FFF7E9FF3847F146294DEC6824F072
:10012000F00444EA03064FEA061606F0F006D5F896
:100130000CC00CF4007C46EA0C06EE60EC6844F45B
:100140008076EE60FFF7D0FF24F48076EE60FFF754
:10015000CBFF484777461A49CA6842F40072CA6022
:1001600003464FEA1313FFF7D7FF1549CA6842F455
:100170000072CA60034603F00F03FFF7CDFFFFF7DD
:10018000B3FF3847F3464FF00200FFF7B2FFFFF727
:10019000ABFF4FF02800FFF7ACFFFFF7A5FF4FF0D4
:1001A0000E00FFF7A6FF4FF00600FFF7A2FFFFF7D4
:1001B0009BFF4FF00100FFF79CFFFFF795FF5847AB
:1001C000000C0140AFF300804FF008000E498A692F
:1001D00042EA00028A610D480D49086040F21110A0
:1001E0004860FFF7CFFFFFF70FFFFFF724FFFFF790
:1001F0002DFFFFF779FFFFF777FF4FF00100FFF7C3
:1002000078FFFFF771FFF0E70010024000101111B6
:04021000000C01409D
:04000005080001C529
:00000001FF
