:020000040800F2
:1000000000010020C901000877463548816941F0A8
:10001000040141F4007181613248816841F00101BD
:100020008160016941F03801016138472D488168DC
:1000300041F001018160016811F0020FFBD0C06C3A
:100040007047F246804640F27144A8EB04084FF432
:10005000206208FB02F84FF47A71B8FBF1F84FF414
:100060007A71B8FBF1F000F13000A0F130004FF4EC
:100070007A7101FB00F4A8EB04084FF06401B8FBAF
:10008000F1F000F13000A0F130004FF0640101FB0D
:1000900000F4A8EB04084FF00A01B8FBF1F000F1FE
:1000A000300000F059F8A0F130004FF0030C60452B
:1000B0000D4CE56802DD45F0080501E025F0080576
:1000C000E5604FF00A0101FB00F4A8EB04084FF0D3
:1000D0000101B8FBF1F000F1300000F03DF85047AD
:1000E00000100240002401400008014042F210715B
:1000F000491EFDD1704777463249CA6822F4007222
:10010000CA6003464FEA131300F008F8034603F0F1
:100110000F0300F003F8FFF7E9FF3847F146294DD8
:10012000EC6824F0F00444EA03064FEA061606F0F1
:10013000F006D5F80CC00CF4007C46EA0C06EE6024
:10014000EC6844F48076EE60FFF7D0FF24F480760C
:10015000EE60FFF7CBFF484777461A49CA6842F47A
:100160000072CA6003464FEA1313FFF7D7FF154921
:10017000CA6842F40072CA60034603F00F03FFF737
:10018000CDFFFFF7B3FF3847F3464FF00200FFF70C
:10019000B2FFFFF7ABFF4FF02800FFF7ACFFFFF710
:1001A000A5FF4FF00E00FFF7A6FF4FF00600FFF788
:1001B000A2FFFFF79BFF4FF00100FFF79CFFFFF747
:1001C00095FF5847000C0140AFF300804FF0080046
:1001D0002E498A6942EA00028A612C48816941F00D
:1001E000040141F40071816129482A49086040F204
:1001F000111048604FF4883027490860FFF7C4FFAA
:10020000FFF702FF4FF08300FFF775FF4FF0540038
:10021000FFF7A2FF4FF06500FFF79EFF4FF06D0064
:10022000FFF79AFF4FF07000FFF796FF4FF0650061
:10023000FFF792FF4FF07200FFF78EFF4FF0610063
:10024000FFF78AFF4FF07400FFF786FF4FF075004D
:10025000FFF782FF4FF07200FFF77EFF4FF065005F
:10026000FFF77AFF4FF0C800FFF745FFFFF7DEFE0C
:10027000FFF7E7FEFFF73AFFFFF738FFFFF736FF1C
:10028000FFF734FFFFF732FFECE7000000100240F9
:0C02900000101111000C0140000801409A
:04000005080001C925
:00000001FF
