:020000040800F2
:100000000028002021040008710400087104000881
:100010007104000871040008710400080000000069
:100020000000000000000000000000007104000853
:100030007104000800000000710400087104000849
:1000400071040008710400087104000871040008BC
:1000500071040008710400087104000871040008AC
:10006000710400087104000871040008710400089C
:10007000710400087104000871040008710400088C
:10008000710400087104000871040008710400087C
:10009000710400087104000871040008710400086C
:1000A000710400087104000871040008710400085C
:1000B000710400087104000871040008710400084C
:1000C000710400087104000871040008710400083C
:1000D000710400087104000871040008710400082C
:1000E0007104000871040008000000007104000899
:1000F000710400087104000871040008710400080C
:1001000071040008710400087104000871040008FB
:1001100071040008710400087104000871040008EB
:1001200071040008710400087104000871040008DB
:1001300010B5054C237833B9044B13B10448AFF321
:1001400000800123237010BD00000020000000008B
:10015000AC06000808B5034B1BB103490348AFF3D5
:10016000008008BD0000000004000020AC0600086C
:1001700080B500AF01224FF48071094800F05BFAAE
:10018000012000F05DF800224FF48071044800F077
:1001900052FA022000F054F80023184680BD00BF38
:1001A000000C014080B582B000AF4FF40073BB80FB
:1001B0000423BB710123FB713B1D19461F4800F04E
:1001C000BBF94FF48073BB800423BB710123FB7127
:1001D0003B1D1946194800F0AFF91023BB800423DA
:1001E000BB710123FB713B1D1946144800F0A4F9B3
:1001F0002023BB800423BB710123FB713B1D1946E7
:100200000E4800F099F94023BB800423BB71012301
:10021000FB713B1D1946094800F08EF98023BB8015
:100220000423BB710123FB713B1D1946034800F0F9
:1002300083F9002318460837BD4680BD000C0140F5
:1002400080B485B000AF78600023FB600BE0002332
:10025000BB6002E0BB680133BB60BB68FE2BF9D911
:10026000FB680133FB60FA687B689A42EFD300BFFA
:100270001437BD4680BC704780B500AF012000F048
:1002800007F80220FFF7DCFF0023184680BD0000BE
:1002900080B582B000AF0346FB7100224FF40071BD
:1002A0004F4800F0C8F9002204214D4800F0C3F97E
:1002B000FB79DB09DBB203F00103002B05D001223F
:1002C0008021474800F0B7F904E00022802144482B
:1002D00000F0B1F9FB799B09DBB203F00103002BBD
:1002E00005D0012240213E4800F0A5F904E000229B
:1002F00040213B4800F09FF9FB795B09DBB203F03A
:100300000103002B05D001222021354800F093F98C
:1003100004E000222021324800F08DF9FB791B090E
:10032000DBB203F00103002B05D0012210212C4881
:1003300000F081F904E000221021294800F07BF947
:10034000FFF716FFFB79DB08DBB203F00103002B9C
:1003500005D001228021224800F06DF904E000223E
:1003600080211F4800F067F9FB799B08DBB203F09E
:100370000103002B05D001224021194800F05BF950
:1003800004E000224021164800F055F9FB795B0893
:10039000DBB203F00103002B05D00122202110481D
:1003A00000F049F904E0002220210D4800F043F953
:1003B000FB7903F00103002B05D00122102108482E
:1003C00000F039F904E000221021054800F033F96B
:1003D000FFF7CEFE002318460837BD4680BD00BF9C
:1003E000000C014080B400AF074B9B69064A43F004
:1003F00004039361044B9B69034A43F00803936130
:1004000000BFBD4680BC70470010024080B500AF01
:10041000FFF7E8FFFFF7C6FEFFF72EFFFEE700003D
:100420000D488546AFF300800C480D490D4A002366
:1004300002E0D458C4500433C4188C42F9D30A4A99
:100440000A4C002301E013600432A242FBD300F007
:1004500009F9FFF7DBFFFEE700280020000000207D
:1004600000000020CC060008000000201C00002036
:10047000FEE780B483B000AF0346FB80FB88802B8F
:1004800042D0802B11DC082B36D0082B06DC022B47
:100490002ED0042B2ED0012B28D047E0202B2FD09C
:1004A000402B2FD0102B29D040E0B3F5006F33D074
:1004B000B3F5006F09DCB3F5007F29D0B3F5806F89
:1004C00028D0B3F5807F21D030E0B3F5005F27D08E
:1004D000B3F5005F03DCB3F5805F1FD026E0B3F512
:1004E000804F1FD0B3F5004F1ED01FE000231EE049
:1004F00004231CE008231AE00C2318E0102316E064
:10050000142314E0182312E01C2310E000230EE053
:1005100004230CE008230AE00C2308E0102306E083
:10052000142304E0182302E01C2300E000231846F3
:100530000C37BD4680BC704790B585B000AF786081
:1005400039600023BB600023FB733B681B88FF2BD3
:1005500001D87B6801E07B680433BB603B681B8883
:100560001846FFF786FF03461A460F239340DA43E7
:10057000BB681B681A40BB681A603B689B78072BF6
:100580000BD03B689B78062B07D03B689B78052BEC
:1005900003D03B689B78042B0ED13B689B78043BCF
:1005A0009B005AB23B68DB785BB213435BB2DBB2B1
:1005B00003F00F03FB732CE03B689B78012B03D007
:1005C0003B689B78002B07D13B689B789B00DBB294
:1005D00003F00F03FB731CE03B689B78082B02D1F0
:1005E0000423FB7315E00823FB733B689B78022B05
:1005F00007D17B68DB683A6812881A437B68DA6047
:1006000007E07B68DB683A681288D2431A407B684F
:10061000DA60FC7B3B681B881846FFF72AFF03461D
:1006200004FA03F2BB681B681A43BB681A6000BF78
:100630001437BD4690BD80B483B000AF78600B46E0
:100640007B8013467B707B78002B03D07A887B6895
:100650001A6102E07A887B685A6100BF0C37BD4698
:1006600080BC704770B500250C4E0D4CA41BA41027
:10067000A54209D100F01AF800250A4E0A4CA41B25
:10068000A410A54205D170BD56F825309847013514
:10069000EEE756F8253098470135F2E7C406000822
:1006A000C4060008C4060008C8060008F8B500BF64
:1006B000F8BC08BC9E467047F8B500BFF8BC08BC43
:0406C0009E4670479B
:0406C40055010008D4
:0406C80031010008F4
:0400000508000421CA
:00000001FF
